{
	"data": {
		"bytecode": {
			"linkReferences": {},
			"object": "6080604052348015600e575f5ffd5b5061022b8061001c5f395ff3fe608060405260043610610033575f3560e01c8063074e5f12146100375780633fb5c1cb14610041578063f2c9ecd814610069575b5f5ffd5b61003f610093565b005b34801561004c575f5ffd5b5061006760048036038101906100629190610145565b6100f5565b005b348015610074575f5ffd5b5061007d6100fe565b60405161008a919061017f565b60405180910390f35b5f61009c610106565b90505f81346100ab91906101c5565b90503373ffffffffffffffffffffffffffffffffffffffff166108fc8290811502906040515f60405180830381858888f193505050501580156100f0573d5f5f3e3d5ffd5b505050565b805f8190555050565b5f5f54905090565b5f6009905090565b5f5ffd5b5f819050919050565b61012481610112565b811461012e575f5ffd5b50565b5f8135905061013f8161011b565b92915050565b5f6020828403121561015a5761015961010e565b5b5f61016784828501610131565b91505092915050565b61017981610112565b82525050565b5f6020820190506101925f830184610170565b92915050565b7f4e487b71000000000000000000000000000000000000000000000000000000005f52601260045260245ffd5b5f6101cf82610112565b91506101da83610112565b9250826101ea576101e9610198565b5b82820490509291505056fea2646970667358221220490703af76f8800274a05f6eebf3af1b5134b736e3ec91fc693f5311136b4a5f64736f6c634300081e0033",
			"opcodes": "PUSH1 0x80 PUSH1 0x40 MSTORE CALLVALUE DUP1 ISZERO PUSH1 0xE JUMPI PUSH0 PUSH0 REVERT JUMPDEST POP PUSH2 0x22B DUP1 PUSH2 0x1C PUSH0 CODECOPY PUSH0 RETURN INVALID PUSH1 0x80 PUSH1 0x40 MSTORE PUSH1 0x4 CALLDATASIZE LT PUSH2 0x33 JUMPI PUSH0 CALLDATALOAD PUSH1 0xE0 SHR DUP1 PUSH4 0x74E5F12 EQ PUSH2 0x37 JUMPI DUP1 PUSH4 0x3FB5C1CB EQ PUSH2 0x41 JUMPI DUP1 PUSH4 0xF2C9ECD8 EQ PUSH2 0x69 JUMPI JUMPDEST PUSH0 PUSH0 REVERT JUMPDEST PUSH2 0x3F PUSH2 0x93 JUMP JUMPDEST STOP JUMPDEST CALLVALUE DUP1 ISZERO PUSH2 0x4C JUMPI PUSH0 PUSH0 REVERT JUMPDEST POP PUSH2 0x67 PUSH1 0x4 DUP1 CALLDATASIZE SUB DUP2 ADD SWAP1 PUSH2 0x62 SWAP2 SWAP1 PUSH2 0x145 JUMP JUMPDEST PUSH2 0xF5 JUMP JUMPDEST STOP JUMPDEST CALLVALUE DUP1 ISZERO PUSH2 0x74 JUMPI PUSH0 PUSH0 REVERT JUMPDEST POP PUSH2 0x7D PUSH2 0xFE JUMP JUMPDEST PUSH1 0x40 MLOAD PUSH2 0x8A SWAP2 SWAP1 PUSH2 0x17F JUMP JUMPDEST PUSH1 0x40 MLOAD DUP1 SWAP2 SUB SWAP1 RETURN JUMPDEST PUSH0 PUSH2 0x9C PUSH2 0x106 JUMP JUMPDEST SWAP1 POP PUSH0 DUP2 CALLVALUE PUSH2 0xAB SWAP2 SWAP1 PUSH2 0x1C5 JUMP JUMPDEST SWAP1 POP CALLER PUSH20 0xFFFFFFFFFFFFFFFFFFFFFFFFFFFFFFFFFFFFFFFF AND PUSH2 0x8FC DUP3 SWAP1 DUP2 ISZERO MUL SWAP1 PUSH1 0x40 MLOAD PUSH0 PUSH1 0x40 MLOAD DUP1 DUP4 SUB DUP2 DUP6 DUP9 DUP9 CALL SWAP4 POP POP POP POP ISZERO DUP1 ISZERO PUSH2 0xF0 JUMPI RETURNDATASIZE PUSH0 PUSH0 RETURNDATACOPY RETURNDATASIZE PUSH0 REVERT JUMPDEST POP POP POP JUMP JUMPDEST DUP1 PUSH0 DUP2 SWAP1 SSTORE POP POP JUMP JUMPDEST PUSH0 PUSH0 SLOAD SWAP1 POP SWAP1 JUMP JUMPDEST PUSH0 PUSH1 0x9 SWAP1 POP SWAP1 JUMP JUMPDEST PUSH0 PUSH0 REVERT JUMPDEST PUSH0 DUP2 SWAP1 POP SWAP2 SWAP1 POP JUMP JUMPDEST PUSH2 0x124 DUP2 PUSH2 0x112 JUMP JUMPDEST DUP2 EQ PUSH2 0x12E JUMPI PUSH0 PUSH0 REVERT JUMPDEST POP JUMP JUMPDEST PUSH0 DUP2 CALLDATALOAD SWAP1 POP PUSH2 0x13F DUP2 PUSH2 0x11B JUMP JUMPDEST SWAP3 SWAP2 POP POP JUMP JUMPDEST PUSH0 PUSH1 0x20 DUP3 DUP5 SUB SLT ISZERO PUSH2 0x15A JUMPI PUSH2 0x159 PUSH2 0x10E JUMP JUMPDEST JUMPDEST PUSH0 PUSH2 0x167 DUP5 DUP3 DUP6 ADD PUSH2 0x131 JUMP JUMPDEST SWAP2 POP POP SWAP3 SWAP2 POP POP JUMP JUMPDEST PUSH2 0x179 DUP2 PUSH2 0x112 JUMP JUMPDEST DUP3 MSTORE POP POP JUMP JUMPDEST PUSH0 PUSH1 0x20 DUP3 ADD SWAP1 POP PUSH2 0x192 PUSH0 DUP4 ADD DUP5 PUSH2 0x170 JUMP JUMPDEST SWAP3 SWAP2 POP POP JUMP JUMPDEST PUSH32 0x4E487B7100000000000000000000000000000000000000000000000000000000 PUSH0 MSTORE PUSH1 0x12 PUSH1 0x4 MSTORE PUSH1 0x24 PUSH0 REVERT JUMPDEST PUSH0 PUSH2 0x1CF DUP3 PUSH2 0x112 JUMP JUMPDEST SWAP2 POP PUSH2 0x1DA DUP4 PUSH2 0x112 JUMP JUMPDEST SWAP3 POP DUP3 PUSH2 0x1EA JUMPI PUSH2 0x1E9 PUSH2 0x198 JUMP JUMPDEST JUMPDEST DUP3 DUP3 DIV SWAP1 POP SWAP3 SWAP2 POP POP JUMP INVALID LOG2 PUSH5 0x6970667358 0x22 SLT KECCAK256 BLOBHASH SMOD SUB 0xAF PUSH23 0xF8800274A05F6EEBF3AF1B5134B736E3EC91FC693F5311 SGT PUSH12 0x4A5F64736F6C634300081E00 CALLER "
		},
		"gasEstimates": {
			"creation": {
				"codeDepositCost": "111000",
				"executionCost": "157",
				"totalCost": "111157"
			},
			"external": {
				"getNumber()": "2453",
				"payMeBackLess()": "infinite",
				"setNumber(uint256)": "22514"
			},
			"internal": {
				"getFixedNumber()": "22",
				"getFixedNumberInternal()": "infinite"
			}
		},
		"methodIdentifiers": {
			"getNumber()": "f2c9ecd8",
			"payMeBackLess()": "074e5f12",
			"setNumber(uint256)": "3fb5c1cb"
		}
	},
	"abi": [
		{
			"inputs": [],
			"name": "getNumber",
			"outputs": [
				{
					"internalType": "uint256",
					"name": "",
					"type": "uint256"
				}
			],
			"stateMutability": "view",
			"type": "function"
		},
		{
			"inputs": [],
			"name": "payMeBackLess",
			"outputs": [],
			"stateMutability": "payable",
			"type": "function"
		},
		{
			"inputs": [
				{
					"internalType": "uint256",
					"name": "_number",
					"type": "uint256"
				}
			],
			"name": "setNumber",
			"outputs": [],
			"stateMutability": "nonpayable",
			"type": "function"
		}
	]
}