{
	".deps/MyContract.sol": {
		"MyContract": {
			"abi": [
				{
					"inputs": [],
					"name": "getNumber",
					"outputs": [
						{
							"internalType": "uint256",
							"name": "",
							"type": "uint256"
						}
					],
					"stateMutability": "view",
					"type": "function"
				},
				{
					"inputs": [],
					"name": "payMeBackLess",
					"outputs": [],
					"stateMutability": "payable",
					"type": "function"
				},
				{
					"inputs": [
						{
							"internalType": "uint256",
							"name": "_number",
							"type": "uint256"
						}
					],
					"name": "setNumber",
					"outputs": [],
					"stateMutability": "nonpayable",
					"type": "function"
				}
			],
			"devdoc": {
				"kind": "dev",
				"methods": {},
				"version": 1
			},
			"evm": {
				"assembly": "    /* \".deps/MyContract.sol\":88:804  contract MyContract {... */\n  mstore(0x40, 0x80)\n  callvalue\n  dup1\n  iszero\n  tag_1\n  jumpi\n  revert(0x00, 0x00)\ntag_1:\n  pop\n  dataSize(sub_0)\n  dup1\n  dataOffset(sub_0)\n  0x00\n  codecopy\n  0x00\n  return\nstop\n\nsub_0: assembly {\n        /* \".deps/MyContract.sol\":88:804  contract MyContract {... */\n      mstore(0x40, 0x80)\n      jumpi(tag_1, lt(calldatasize, 0x04))\n      shr(0xe0, calldataload(0x00))\n      dup1\n      0x074e5f12\n      eq\n      tag_2\n      jumpi\n      dup1\n      0x3fb5c1cb\n      eq\n      tag_3\n      jumpi\n      dup1\n      0xf2c9ecd8\n      eq\n      tag_4\n      jumpi\n    tag_1:\n      revert(0x00, 0x00)\n        /* \".deps/MyContract.sol\":489:801  function payMeBackLess() external payable {... */\n    tag_2:\n      tag_5\n      tag_6\n      jump\t// in\n    tag_5:\n      stop\n        /* \".deps/MyContract.sol\":135:211  function setNumber(uint256 _number) public {... */\n    tag_3:\n      callvalue\n      dup1\n      iszero\n      tag_7\n      jumpi\n      revert(0x00, 0x00)\n    tag_7:\n      pop\n      tag_8\n      0x04\n      dup1\n      calldatasize\n      sub\n      dup2\n      add\n      swap1\n      tag_9\n      swap2\n      swap1\n      tag_10\n      jump\t// in\n    tag_9:\n      tag_11\n      jump\t// in\n    tag_8:\n      stop\n        /* \".deps/MyContract.sol\":217:298  function getNumber() public view returns (uint256) {... */\n    tag_4:\n      callvalue\n      dup1\n      iszero\n      tag_12\n      jumpi\n      revert(0x00, 0x00)\n    tag_12:\n      pop\n      tag_13\n      tag_14\n      jump\t// in\n    tag_13:\n      mload(0x40)\n      tag_15\n      swap2\n      swap1\n      tag_16\n      jump\t// in\n    tag_15:\n      mload(0x40)\n      dup1\n      swap2\n      sub\n      swap1\n      return\n        /* \".deps/MyContract.sol\":489:801  function payMeBackLess() external payable {... */\n    tag_6:\n        /* \".deps/MyContract.sol\":541:576  console.log(\"msg.value\", msg.value) */\n      tag_18\n      mload(0x40)\n      dup1\n      0x40\n      add\n      0x40\n      mstore\n      dup1\n      0x09\n      dup2\n      mstore\n      0x20\n      add\n      0x6d73672e76616c75650000000000000000000000000000000000000000000000\n      dup2\n      mstore\n      pop\n        /* \".deps/MyContract.sol\":566:575  msg.value */\n      callvalue\n        /* \".deps/MyContract.sol\":541:552  console.log */\n      tag_19\n        /* \".deps/MyContract.sol\":541:576  console.log(\"msg.value\", msg.value) */\n      jump\t// in\n    tag_18:\n        /* \".deps/MyContract.sol\":607:614  1 ether */\n      0x0de0b6b3a7640000\n        /* \".deps/MyContract.sol\":594:603  msg.value */\n      callvalue\n        /* \".deps/MyContract.sol\":594:614  msg.value >= 1 ether */\n      lt\n      iszero\n        /* \".deps/MyContract.sol\":586:643  require(msg.value >= 1 ether, \"Must send at least 1 ETH\") */\n      tag_20\n      jumpi\n      mload(0x40)\n      0x08c379a000000000000000000000000000000000000000000000000000000000\n      dup2\n      mstore\n      0x04\n      add\n      tag_21\n      swap1\n      tag_22\n      jump\t// in\n    tag_21:\n      mload(0x40)\n      dup1\n      swap2\n      sub\n      swap1\n      revert\n    tag_20:\n        /* \".deps/MyContract.sol\":654:673  uint256 fixedNumber */\n      0x00\n        /* \".deps/MyContract.sol\":676:692  getFixedNumber() */\n      tag_23\n        /* \".deps/MyContract.sol\":676:690  getFixedNumber */\n      tag_24\n        /* \".deps/MyContract.sol\":676:692  getFixedNumber() */\n      jump\t// in\n    tag_23:\n        /* \".deps/MyContract.sol\":654:692  uint256 fixedNumber = getFixedNumber() */\n      swap1\n      pop\n        /* \".deps/MyContract.sol\":702:719  uint256 ethRefund */\n      0x00\n        /* \".deps/MyContract.sol\":734:745  fixedNumber */\n      dup2\n        /* \".deps/MyContract.sol\":722:731  msg.value */\n      callvalue\n        /* \".deps/MyContract.sol\":722:745  msg.value / fixedNumber */\n      tag_25\n      swap2\n      swap1\n      tag_26\n      jump\t// in\n    tag_25:\n        /* \".deps/MyContract.sol\":702:745  uint256 ethRefund = msg.value / fixedNumber */\n      swap1\n      pop\n        /* \".deps/MyContract.sol\":763:773  msg.sender */\n      caller\n        /* \".deps/MyContract.sol\":755:783  payable(msg.sender).transfer */\n      0xffffffffffffffffffffffffffffffffffffffff\n      and\n        /* \".deps/MyContract.sol\":755:794  payable(msg.sender).transfer(ethRefund) */\n      0x08fc\n        /* \".deps/MyContract.sol\":784:793  ethRefund */\n      dup3\n        /* \".deps/MyContract.sol\":755:794  payable(msg.sender).transfer(ethRefund) */\n      swap1\n      dup2\n      iszero\n      mul\n      swap1\n      mload(0x40)\n      0x00\n      mload(0x40)\n      dup1\n      dup4\n      sub\n      dup2\n      dup6\n      dup9\n      dup9\n      call\n      swap4\n      pop\n      pop\n      pop\n      pop\n      iszero\n      dup1\n      iszero\n      tag_28\n      jumpi\n      returndatacopy(0x00, 0x00, returndatasize)\n      revert(0x00, returndatasize)\n    tag_28:\n      pop\n        /* \".deps/MyContract.sol\":531:801  {... */\n      pop\n      pop\n        /* \".deps/MyContract.sol\":489:801  function payMeBackLess() external payable {... */\n      jump\t// out\n        /* \".deps/MyContract.sol\":135:211  function setNumber(uint256 _number) public {... */\n    tag_11:\n        /* \".deps/MyContract.sol\":197:204  _number */\n      dup1\n        /* \".deps/MyContract.sol\":188:194  number */\n      0x00\n        /* \".deps/MyContract.sol\":188:204  number = _number */\n      dup2\n      swap1\n      sstore\n      pop\n        /* \".deps/MyContract.sol\":135:211  function setNumber(uint256 _number) public {... */\n      pop\n      jump\t// out\n        /* \".deps/MyContract.sol\":217:298  function getNumber() public view returns (uint256) {... */\n    tag_14:\n        /* \".deps/MyContract.sol\":259:266  uint256 */\n      0x00\n        /* \".deps/MyContract.sol\":285:291  number */\n      sload(0x00)\n        /* \".deps/MyContract.sol\":278:291  return number */\n      swap1\n      pop\n        /* \".deps/MyContract.sol\":217:298  function getNumber() public view returns (uint256) {... */\n      swap1\n      jump\t// out\n        /* \"hardhat/console.sol\":7019:7164  function log(string memory p0, uint256 p1) internal pure {... */\n    tag_19:\n        /* \"hardhat/console.sol\":7086:7157  _sendLogPayload(abi.encodeWithSignature(\"log(string,uint256)\", p0, p1)) */\n      tag_32\n        /* \"hardhat/console.sol\":7149:7151  p0 */\n      dup3\n        /* \"hardhat/console.sol\":7153:7155  p1 */\n      dup3\n        /* \"hardhat/console.sol\":7102:7156  abi.encodeWithSignature(\"log(string,uint256)\", p0, p1) */\n      add(0x24, mload(0x40))\n      tag_33\n      swap3\n      swap2\n      swap1\n      tag_34\n      jump\t// in\n    tag_33:\n      mload(0x40)\n      0x20\n      dup2\n      dup4\n      sub\n      sub\n      dup2\n      mstore\n      swap1\n      0x40\n      mstore\n      and(not(0xffffffffffffffffffffffffffffffffffffffffffffffffffffffff), 0xb60e72cc00000000000000000000000000000000000000000000000000000000)\n      0x20\n      dup3\n      add\n      dup1\n      mload\n      0xffffffffffffffffffffffffffffffffffffffffffffffffffffffff\n      dup4\n      dup2\n      dup4\n      and\n      or\n      dup4\n      mstore\n      pop\n      pop\n      pop\n      pop\n        /* \"hardhat/console.sol\":7086:7101  _sendLogPayload */\n      tag_35\n        /* \"hardhat/console.sol\":7086:7157  _sendLogPayload(abi.encodeWithSignature(\"log(string,uint256)\", p0, p1)) */\n      jump\t// in\n    tag_32:\n        /* \"hardhat/console.sol\":7019:7164  function log(string memory p0, uint256 p1) internal pure {... */\n      pop\n      pop\n      jump\t// out\n        /* \".deps/MyContract.sol\":304:386  function getFixedNumber() private pure returns (uint256) {... */\n    tag_24:\n        /* \".deps/MyContract.sol\":352:359  uint256 */\n      0x00\n        /* \".deps/MyContract.sol\":378:379  9 */\n      0x09\n        /* \".deps/MyContract.sol\":371:379  return 9 */\n      swap1\n      pop\n        /* \".deps/MyContract.sol\":304:386  function getFixedNumber() private pure returns (uint256) {... */\n      swap1\n      jump\t// out\n        /* \"hardhat/console.sol\":851:980  function _sendLogPayload(bytes memory payload) internal pure {... */\n    tag_35:\n        /* \"hardhat/console.sol\":922:973  _castToPure(_sendLogPayloadImplementation)(payload) */\n      tag_38\n        /* \"hardhat/console.sol\":965:972  payload */\n      dup2\n        /* \"hardhat/console.sol\":922:964  _castToPure(_sendLogPayloadImplementation) */\n      tag_39\n        /* \"hardhat/console.sol\":934:963  _sendLogPayloadImplementation */\n      tag_40\n        /* \"hardhat/console.sol\":922:933  _castToPure */\n      tag_41\n        /* \"hardhat/console.sol\":922:964  _castToPure(_sendLogPayloadImplementation) */\n      jump\t// in\n    tag_39:\n        /* \"hardhat/console.sol\":922:973  _castToPure(_sendLogPayloadImplementation)(payload) */\n      0xffffffff\n      and\n      jump\t// in\n    tag_38:\n        /* \"hardhat/console.sol\":851:980  function _sendLogPayload(bytes memory payload) internal pure {... */\n      pop\n      jump\t// out\n        /* \"hardhat/console.sol\":180:643  function _sendLogPayloadImplementation(bytes memory payload) internal view {... */\n    tag_40:\n        /* \"hardhat/console.sol\":265:287  address consoleAddress */\n      0x00\n        /* \"hardhat/console.sol\":131:173  0x000000000000000000636F6e736F6c652e6c6f67 */\n      0x636f6e736f6c652e6c6f67\n        /* \"hardhat/console.sol\":265:305  address consoleAddress = CONSOLE_ADDRESS */\n      swap1\n      pop\n        /* \"hardhat/console.sol\":594:595  0 */\n      0x00\n        /* \"hardhat/console.sol\":571:572  0 */\n      0x00\n        /* \"hardhat/console.sol\":541:548  payload */\n      dup4\n        /* \"hardhat/console.sol\":535:549  mload(payload) */\n      mload\n        /* \"hardhat/console.sol\":510:512  32 */\n      0x20\n        /* \"hardhat/console.sol\":501:508  payload */\n      dup6\n        /* \"hardhat/console.sol\":497:513  add(payload, 32) */\n      add\n        /* \"hardhat/console.sol\":461:475  consoleAddress */\n      dup5\n        /* \"hardhat/console.sol\":434:439  gas() */\n      gas\n        /* \"hardhat/console.sol\":402:613  staticcall(... */\n      staticcall\n        /* \"hardhat/console.sol\":381:627  pop(... */\n      pop\n        /* \"hardhat/console.sol\":367:637  {... */\n      pop\n        /* \"hardhat/console.sol\":180:643  function _sendLogPayloadImplementation(bytes memory payload) internal view {... */\n      pop\n      jump\t// out\n        /* \"hardhat/console.sol\":649:845  function _castToPure(... */\n    tag_41:\n        /* \"hardhat/console.sol\":748:781  function(bytes memory) pure fnOut */\n      tag_43\n        /* \"hardhat/console.sol\":825:829  fnIn */\n      dup2\n        /* \"hardhat/console.sol\":816:829  fnOut := fnIn */\n      swap1\n      pop\n        /* \"hardhat/console.sol\":649:845  function _castToPure(... */\n      swap2\n      swap1\n      pop\n      jump\t// out\n    tag_43:\n      tag_45\n      tag_46\n      jump\t// in\n    tag_45:\n      jump\t// out\n        /* \"#utility.yul\":88:205   */\n    tag_48:\n        /* \"#utility.yul\":197:198   */\n      0x00\n        /* \"#utility.yul\":194:195   */\n      0x00\n        /* \"#utility.yul\":187:199   */\n      revert\n        /* \"#utility.yul\":334:411   */\n    tag_50:\n        /* \"#utility.yul\":371:378   */\n      0x00\n        /* \"#utility.yul\":400:405   */\n      dup2\n        /* \"#utility.yul\":389:405   */\n      swap1\n      pop\n        /* \"#utility.yul\":334:411   */\n      swap2\n      swap1\n      pop\n      jump\t// out\n        /* \"#utility.yul\":417:539   */\n    tag_51:\n        /* \"#utility.yul\":490:514   */\n      tag_69\n        /* \"#utility.yul\":508:513   */\n      dup2\n        /* \"#utility.yul\":490:514   */\n      tag_50\n      jump\t// in\n    tag_69:\n        /* \"#utility.yul\":483:488   */\n      dup2\n        /* \"#utility.yul\":480:515   */\n      eq\n        /* \"#utility.yul\":470:533   */\n      tag_70\n      jumpi\n        /* \"#utility.yul\":529:530   */\n      0x00\n        /* \"#utility.yul\":526:527   */\n      0x00\n        /* \"#utility.yul\":519:531   */\n      revert\n        /* \"#utility.yul\":470:533   */\n    tag_70:\n        /* \"#utility.yul\":417:539   */\n      pop\n      jump\t// out\n        /* \"#utility.yul\":545:684   */\n    tag_52:\n        /* \"#utility.yul\":591:596   */\n      0x00\n        /* \"#utility.yul\":629:635   */\n      dup2\n        /* \"#utility.yul\":616:636   */\n      calldataload\n        /* \"#utility.yul\":607:636   */\n      swap1\n      pop\n        /* \"#utility.yul\":645:678   */\n      tag_72\n        /* \"#utility.yul\":672:677   */\n      dup2\n        /* \"#utility.yul\":645:678   */\n      tag_51\n      jump\t// in\n    tag_72:\n        /* \"#utility.yul\":545:684   */\n      swap3\n      swap2\n      pop\n      pop\n      jump\t// out\n        /* \"#utility.yul\":690:1019   */\n    tag_10:\n        /* \"#utility.yul\":749:755   */\n      0x00\n        /* \"#utility.yul\":798:800   */\n      0x20\n        /* \"#utility.yul\":786:795   */\n      dup3\n        /* \"#utility.yul\":777:784   */\n      dup5\n        /* \"#utility.yul\":773:796   */\n      sub\n        /* \"#utility.yul\":769:801   */\n      slt\n        /* \"#utility.yul\":766:885   */\n      iszero\n      tag_74\n      jumpi\n        /* \"#utility.yul\":804:883   */\n      tag_75\n      tag_48\n      jump\t// in\n    tag_75:\n        /* \"#utility.yul\":766:885   */\n    tag_74:\n        /* \"#utility.yul\":924:925   */\n      0x00\n        /* \"#utility.yul\":949:1002   */\n      tag_76\n        /* \"#utility.yul\":994:1001   */\n      dup5\n        /* \"#utility.yul\":985:991   */\n      dup3\n        /* \"#utility.yul\":974:983   */\n      dup6\n        /* \"#utility.yul\":970:992   */\n      add\n        /* \"#utility.yul\":949:1002   */\n      tag_52\n      jump\t// in\n    tag_76:\n        /* \"#utility.yul\":939:1002   */\n      swap2\n      pop\n        /* \"#utility.yul\":895:1012   */\n      pop\n        /* \"#utility.yul\":690:1019   */\n      swap3\n      swap2\n      pop\n      pop\n      jump\t// out\n        /* \"#utility.yul\":1025:1143   */\n    tag_53:\n        /* \"#utility.yul\":1112:1136   */\n      tag_78\n        /* \"#utility.yul\":1130:1135   */\n      dup2\n        /* \"#utility.yul\":1112:1136   */\n      tag_50\n      jump\t// in\n    tag_78:\n        /* \"#utility.yul\":1107:1110   */\n      dup3\n        /* \"#utility.yul\":1100:1137   */\n      mstore\n        /* \"#utility.yul\":1025:1143   */\n      pop\n      pop\n      jump\t// out\n        /* \"#utility.yul\":1149:1371   */\n    tag_16:\n        /* \"#utility.yul\":1242:1246   */\n      0x00\n        /* \"#utility.yul\":1280:1282   */\n      0x20\n        /* \"#utility.yul\":1269:1278   */\n      dup3\n        /* \"#utility.yul\":1265:1283   */\n      add\n        /* \"#utility.yul\":1257:1283   */\n      swap1\n      pop\n        /* \"#utility.yul\":1293:1364   */\n      tag_80\n        /* \"#utility.yul\":1361:1362   */\n      0x00\n        /* \"#utility.yul\":1350:1359   */\n      dup4\n        /* \"#utility.yul\":1346:1363   */\n      add\n        /* \"#utility.yul\":1337:1343   */\n      dup5\n        /* \"#utility.yul\":1293:1364   */\n      tag_53\n      jump\t// in\n    tag_80:\n        /* \"#utility.yul\":1149:1371   */\n      swap3\n      swap2\n      pop\n      pop\n      jump\t// out\n        /* \"#utility.yul\":1377:1546   */\n    tag_54:\n        /* \"#utility.yul\":1461:1472   */\n      0x00\n        /* \"#utility.yul\":1495:1501   */\n      dup3\n        /* \"#utility.yul\":1490:1493   */\n      dup3\n        /* \"#utility.yul\":1483:1502   */\n      mstore\n        /* \"#utility.yul\":1535:1539   */\n      0x20\n        /* \"#utility.yul\":1530:1533   */\n      dup3\n        /* \"#utility.yul\":1526:1540   */\n      add\n        /* \"#utility.yul\":1511:1540   */\n      swap1\n      pop\n        /* \"#utility.yul\":1377:1546   */\n      swap3\n      swap2\n      pop\n      pop\n      jump\t// out\n        /* \"#utility.yul\":1552:1726   */\n    tag_55:\n        /* \"#utility.yul\":1692:1718   */\n      0x4d7573742073656e64206174206c656173742031204554480000000000000000\n        /* \"#utility.yul\":1688:1689   */\n      0x00\n        /* \"#utility.yul\":1680:1686   */\n      dup3\n        /* \"#utility.yul\":1676:1690   */\n      add\n        /* \"#utility.yul\":1669:1719   */\n      mstore\n        /* \"#utility.yul\":1552:1726   */\n      pop\n      jump\t// out\n        /* \"#utility.yul\":1732:2098   */\n    tag_56:\n        /* \"#utility.yul\":1874:1877   */\n      0x00\n        /* \"#utility.yul\":1895:1962   */\n      tag_84\n        /* \"#utility.yul\":1959:1961   */\n      0x18\n        /* \"#utility.yul\":1954:1957   */\n      dup4\n        /* \"#utility.yul\":1895:1962   */\n      tag_54\n      jump\t// in\n    tag_84:\n        /* \"#utility.yul\":1888:1962   */\n      swap2\n      pop\n        /* \"#utility.yul\":1971:2064   */\n      tag_85\n        /* \"#utility.yul\":2060:2063   */\n      dup3\n        /* \"#utility.yul\":1971:2064   */\n      tag_55\n      jump\t// in\n    tag_85:\n        /* \"#utility.yul\":2089:2091   */\n      0x20\n        /* \"#utility.yul\":2084:2087   */\n      dup3\n        /* \"#utility.yul\":2080:2092   */\n      add\n        /* \"#utility.yul\":2073:2092   */\n      swap1\n      pop\n        /* \"#utility.yul\":1732:2098   */\n      swap2\n      swap1\n      pop\n      jump\t// out\n        /* \"#utility.yul\":2104:2523   */\n    tag_22:\n        /* \"#utility.yul\":2270:2274   */\n      0x00\n        /* \"#utility.yul\":2308:2310   */\n      0x20\n        /* \"#utility.yul\":2297:2306   */\n      dup3\n        /* \"#utility.yul\":2293:2311   */\n      add\n        /* \"#utility.yul\":2285:2311   */\n      swap1\n      pop\n        /* \"#utility.yul\":2357:2366   */\n      dup2\n        /* \"#utility.yul\":2351:2355   */\n      dup2\n        /* \"#utility.yul\":2347:2367   */\n      sub\n        /* \"#utility.yul\":2343:2344   */\n      0x00\n        /* \"#utility.yul\":2332:2341   */\n      dup4\n        /* \"#utility.yul\":2328:2345   */\n      add\n        /* \"#utility.yul\":2321:2368   */\n      mstore\n        /* \"#utility.yul\":2385:2516   */\n      tag_87\n        /* \"#utility.yul\":2511:2515   */\n      dup2\n        /* \"#utility.yul\":2385:2516   */\n      tag_56\n      jump\t// in\n    tag_87:\n        /* \"#utility.yul\":2377:2516   */\n      swap1\n      pop\n        /* \"#utility.yul\":2104:2523   */\n      swap2\n      swap1\n      pop\n      jump\t// out\n        /* \"#utility.yul\":2529:2709   */\n    tag_57:\n        /* \"#utility.yul\":2577:2654   */\n      0x4e487b7100000000000000000000000000000000000000000000000000000000\n        /* \"#utility.yul\":2574:2575   */\n      0x00\n        /* \"#utility.yul\":2567:2655   */\n      mstore\n        /* \"#utility.yul\":2674:2678   */\n      0x12\n        /* \"#utility.yul\":2671:2672   */\n      0x04\n        /* \"#utility.yul\":2664:2679   */\n      mstore\n        /* \"#utility.yul\":2698:2702   */\n      0x24\n        /* \"#utility.yul\":2695:2696   */\n      0x00\n        /* \"#utility.yul\":2688:2703   */\n      revert\n        /* \"#utility.yul\":2901:3086   */\n    tag_26:\n        /* \"#utility.yul\":2941:2942   */\n      0x00\n        /* \"#utility.yul\":2958:2978   */\n      tag_91\n        /* \"#utility.yul\":2976:2977   */\n      dup3\n        /* \"#utility.yul\":2958:2978   */\n      tag_50\n      jump\t// in\n    tag_91:\n        /* \"#utility.yul\":2953:2978   */\n      swap2\n      pop\n        /* \"#utility.yul\":2992:3012   */\n      tag_92\n        /* \"#utility.yul\":3010:3011   */\n      dup4\n        /* \"#utility.yul\":2992:3012   */\n      tag_50\n      jump\t// in\n    tag_92:\n        /* \"#utility.yul\":2987:3012   */\n      swap3\n      pop\n        /* \"#utility.yul\":3031:3032   */\n      dup3\n        /* \"#utility.yul\":3021:3056   */\n      tag_93\n      jumpi\n        /* \"#utility.yul\":3036:3054   */\n      tag_94\n      tag_57\n      jump\t// in\n    tag_94:\n        /* \"#utility.yul\":3021:3056   */\n    tag_93:\n        /* \"#utility.yul\":3078:3079   */\n      dup3\n        /* \"#utility.yul\":3075:3076   */\n      dup3\n        /* \"#utility.yul\":3071:3080   */\n      div\n        /* \"#utility.yul\":3066:3080   */\n      swap1\n      pop\n        /* \"#utility.yul\":2901:3086   */\n      swap3\n      swap2\n      pop\n      pop\n      jump\t// out\n        /* \"#utility.yul\":3092:3191   */\n    tag_59:\n        /* \"#utility.yul\":3144:3150   */\n      0x00\n        /* \"#utility.yul\":3178:3183   */\n      dup2\n        /* \"#utility.yul\":3172:3184   */\n      mload\n        /* \"#utility.yul\":3162:3184   */\n      swap1\n      pop\n        /* \"#utility.yul\":3092:3191   */\n      swap2\n      swap1\n      pop\n      jump\t// out\n        /* \"#utility.yul\":3197:3336   */\n    tag_60:\n        /* \"#utility.yul\":3286:3292   */\n      dup3\n        /* \"#utility.yul\":3281:3284   */\n      dup2\n        /* \"#utility.yul\":3276:3279   */\n      dup4\n        /* \"#utility.yul\":3270:3293   */\n      mcopy\n        /* \"#utility.yul\":3327:3328   */\n      0x00\n        /* \"#utility.yul\":3318:3324   */\n      dup4\n        /* \"#utility.yul\":3313:3316   */\n      dup4\n        /* \"#utility.yul\":3309:3325   */\n      add\n        /* \"#utility.yul\":3302:3329   */\n      mstore\n        /* \"#utility.yul\":3197:3336   */\n      pop\n      pop\n      pop\n      jump\t// out\n        /* \"#utility.yul\":3342:3444   */\n    tag_61:\n        /* \"#utility.yul\":3383:3389   */\n      0x00\n        /* \"#utility.yul\":3434:3436   */\n      0x1f\n        /* \"#utility.yul\":3430:3437   */\n      not\n        /* \"#utility.yul\":3425:3427   */\n      0x1f\n        /* \"#utility.yul\":3418:3423   */\n      dup4\n        /* \"#utility.yul\":3414:3428   */\n      add\n        /* \"#utility.yul\":3410:3438   */\n      and\n        /* \"#utility.yul\":3400:3438   */\n      swap1\n      pop\n        /* \"#utility.yul\":3342:3444   */\n      swap2\n      swap1\n      pop\n      jump\t// out\n        /* \"#utility.yul\":3450:3827   */\n    tag_62:\n        /* \"#utility.yul\":3538:3541   */\n      0x00\n        /* \"#utility.yul\":3566:3605   */\n      tag_99\n        /* \"#utility.yul\":3599:3604   */\n      dup3\n        /* \"#utility.yul\":3566:3605   */\n      tag_59\n      jump\t// in\n    tag_99:\n        /* \"#utility.yul\":3621:3692   */\n      tag_100\n        /* \"#utility.yul\":3685:3691   */\n      dup2\n        /* \"#utility.yul\":3680:3683   */\n      dup6\n        /* \"#utility.yul\":3621:3692   */\n      tag_54\n      jump\t// in\n    tag_100:\n        /* \"#utility.yul\":3614:3692   */\n      swap4\n      pop\n        /* \"#utility.yul\":3701:3766   */\n      tag_101\n        /* \"#utility.yul\":3759:3765   */\n      dup2\n        /* \"#utility.yul\":3754:3757   */\n      dup6\n        /* \"#utility.yul\":3747:3751   */\n      0x20\n        /* \"#utility.yul\":3740:3745   */\n      dup7\n        /* \"#utility.yul\":3736:3752   */\n      add\n        /* \"#utility.yul\":3701:3766   */\n      tag_60\n      jump\t// in\n    tag_101:\n        /* \"#utility.yul\":3791:3820   */\n      tag_102\n        /* \"#utility.yul\":3813:3819   */\n      dup2\n        /* \"#utility.yul\":3791:3820   */\n      tag_61\n      jump\t// in\n    tag_102:\n        /* \"#utility.yul\":3786:3789   */\n      dup5\n        /* \"#utility.yul\":3782:3821   */\n      add\n        /* \"#utility.yul\":3775:3821   */\n      swap2\n      pop\n        /* \"#utility.yul\":3542:3827   */\n      pop\n        /* \"#utility.yul\":3450:3827   */\n      swap3\n      swap2\n      pop\n      pop\n      jump\t// out\n        /* \"#utility.yul\":3833:4256   */\n    tag_34:\n        /* \"#utility.yul\":3974:3978   */\n      0x00\n        /* \"#utility.yul\":4012:4014   */\n      0x40\n        /* \"#utility.yul\":4001:4010   */\n      dup3\n        /* \"#utility.yul\":3997:4015   */\n      add\n        /* \"#utility.yul\":3989:4015   */\n      swap1\n      pop\n        /* \"#utility.yul\":4061:4070   */\n      dup2\n        /* \"#utility.yul\":4055:4059   */\n      dup2\n        /* \"#utility.yul\":4051:4071   */\n      sub\n        /* \"#utility.yul\":4047:4048   */\n      0x00\n        /* \"#utility.yul\":4036:4045   */\n      dup4\n        /* \"#utility.yul\":4032:4049   */\n      add\n        /* \"#utility.yul\":4025:4072   */\n      mstore\n        /* \"#utility.yul\":4089:4167   */\n      tag_104\n        /* \"#utility.yul\":4162:4166   */\n      dup2\n        /* \"#utility.yul\":4153:4159   */\n      dup6\n        /* \"#utility.yul\":4089:4167   */\n      tag_62\n      jump\t// in\n    tag_104:\n        /* \"#utility.yul\":4081:4167   */\n      swap1\n      pop\n        /* \"#utility.yul\":4177:4249   */\n      tag_105\n        /* \"#utility.yul\":4245:4247   */\n      0x20\n        /* \"#utility.yul\":4234:4243   */\n      dup4\n        /* \"#utility.yul\":4230:4248   */\n      add\n        /* \"#utility.yul\":4221:4227   */\n      dup5\n        /* \"#utility.yul\":4177:4249   */\n      tag_53\n      jump\t// in\n    tag_105:\n        /* \"#utility.yul\":3833:4256   */\n      swap4\n      swap3\n      pop\n      pop\n      pop\n      jump\t// out\n        /* \"#utility.yul\":4262:4442   */\n    tag_46:\n        /* \"#utility.yul\":4310:4387   */\n      0x4e487b7100000000000000000000000000000000000000000000000000000000\n        /* \"#utility.yul\":4307:4308   */\n      0x00\n        /* \"#utility.yul\":4300:4388   */\n      mstore\n        /* \"#utility.yul\":4407:4411   */\n      0x51\n        /* \"#utility.yul\":4404:4405   */\n      0x04\n        /* \"#utility.yul\":4397:4412   */\n      mstore\n        /* \"#utility.yul\":4431:4435   */\n      0x24\n        /* \"#utility.yul\":4428:4429   */\n      0x00\n        /* \"#utility.yul\":4421:4436   */\n      revert\n\n    auxdata: 0xa264697066735822122019faf7344d429a0f874f30abc53f94b4e97c7e704da04e7b5b9ecf6e19e4f54664736f6c634300081e0033\n}\n",
				"bytecode": {
					"linkReferences": {},
					"object": "6080604052348015600e575f5ffd5b506104d28061001c5f395ff3fe608060405260043610610033575f3560e01c8063074e5f12146100375780633fb5c1cb14610041578063f2c9ecd814610069575b5f5ffd5b61003f610093565b005b34801561004c575f5ffd5b50610067600480360381019061006291906102b9565b61017f565b005b348015610074575f5ffd5b5061007d610188565b60405161008a91906102f3565b60405180910390f35b6100d26040518060400160405280600981526020017f6d73672e76616c7565000000000000000000000000000000000000000000000081525034610190565b670de0b6b3a764000034101561011d576040517f08c379a000000000000000000000000000000000000000000000000000000000815260040161011490610366565b60405180910390fd5b5f61012661022c565b90505f813461013591906103b1565b90503373ffffffffffffffffffffffffffffffffffffffff166108fc8290811502906040515f60405180830381858888f1935050505015801561017a573d5f5f3e3d5ffd5b505050565b805f8190555050565b5f5f54905090565b61022882826040516024016101a6929190610441565b6040516020818303038152906040527fb60e72cc000000000000000000000000000000000000000000000000000000007bffffffffffffffffffffffffffffffffffffffffffffffffffffffff19166020820180517bffffffffffffffffffffffffffffffffffffffffffffffffffffffff8381831617835250505050610234565b5050565b5f6009905090565b61024b8161024361024e61026d565b63ffffffff16565b50565b5f6a636f6e736f6c652e6c6f6790505f5f835160208501845afa505050565b610278819050919050565b61028061046f565b565b5f5ffd5b5f819050919050565b61029881610286565b81146102a2575f5ffd5b50565b5f813590506102b38161028f565b92915050565b5f602082840312156102ce576102cd610282565b5b5f6102db848285016102a5565b91505092915050565b6102ed81610286565b82525050565b5f6020820190506103065f8301846102e4565b92915050565b5f82825260208201905092915050565b7f4d7573742073656e64206174206c6561737420312045544800000000000000005f82015250565b5f61035060188361030c565b915061035b8261031c565b602082019050919050565b5f6020820190508181035f83015261037d81610344565b9050919050565b7f4e487b71000000000000000000000000000000000000000000000000000000005f52601260045260245ffd5b5f6103bb82610286565b91506103c683610286565b9250826103d6576103d5610384565b5b828204905092915050565b5f81519050919050565b8281835e5f83830152505050565b5f601f19601f8301169050919050565b5f610413826103e1565b61041d818561030c565b935061042d8185602086016103eb565b610436816103f9565b840191505092915050565b5f6040820190508181035f8301526104598185610409565b905061046860208301846102e4565b9392505050565b7f4e487b71000000000000000000000000000000000000000000000000000000005f52605160045260245ffdfea264697066735822122019faf7344d429a0f874f30abc53f94b4e97c7e704da04e7b5b9ecf6e19e4f54664736f6c634300081e0033",
					"opcodes": "PUSH1 0x80 PUSH1 0x40 MSTORE CALLVALUE DUP1 ISZERO PUSH1 0xE JUMPI PUSH0 PUSH0 REVERT JUMPDEST POP PUSH2 0x4D2 DUP1 PUSH2 0x1C PUSH0 CODECOPY PUSH0 RETURN INVALID PUSH1 0x80 PUSH1 0x40 MSTORE PUSH1 0x4 CALLDATASIZE LT PUSH2 0x33 JUMPI PUSH0 CALLDATALOAD PUSH1 0xE0 SHR DUP1 PUSH4 0x74E5F12 EQ PUSH2 0x37 JUMPI DUP1 PUSH4 0x3FB5C1CB EQ PUSH2 0x41 JUMPI DUP1 PUSH4 0xF2C9ECD8 EQ PUSH2 0x69 JUMPI JUMPDEST PUSH0 PUSH0 REVERT JUMPDEST PUSH2 0x3F PUSH2 0x93 JUMP JUMPDEST STOP JUMPDEST CALLVALUE DUP1 ISZERO PUSH2 0x4C JUMPI PUSH0 PUSH0 REVERT JUMPDEST POP PUSH2 0x67 PUSH1 0x4 DUP1 CALLDATASIZE SUB DUP2 ADD SWAP1 PUSH2 0x62 SWAP2 SWAP1 PUSH2 0x2B9 JUMP JUMPDEST PUSH2 0x17F JUMP JUMPDEST STOP JUMPDEST CALLVALUE DUP1 ISZERO PUSH2 0x74 JUMPI PUSH0 PUSH0 REVERT JUMPDEST POP PUSH2 0x7D PUSH2 0x188 JUMP JUMPDEST PUSH1 0x40 MLOAD PUSH2 0x8A SWAP2 SWAP1 PUSH2 0x2F3 JUMP JUMPDEST PUSH1 0x40 MLOAD DUP1 SWAP2 SUB SWAP1 RETURN JUMPDEST PUSH2 0xD2 PUSH1 0x40 MLOAD DUP1 PUSH1 0x40 ADD PUSH1 0x40 MSTORE DUP1 PUSH1 0x9 DUP2 MSTORE PUSH1 0x20 ADD PUSH32 0x6D73672E76616C75650000000000000000000000000000000000000000000000 DUP2 MSTORE POP CALLVALUE PUSH2 0x190 JUMP JUMPDEST PUSH8 0xDE0B6B3A7640000 CALLVALUE LT ISZERO PUSH2 0x11D JUMPI PUSH1 0x40 MLOAD PUSH32 0x8C379A000000000000000000000000000000000000000000000000000000000 DUP2 MSTORE PUSH1 0x4 ADD PUSH2 0x114 SWAP1 PUSH2 0x366 JUMP JUMPDEST PUSH1 0x40 MLOAD DUP1 SWAP2 SUB SWAP1 REVERT JUMPDEST PUSH0 PUSH2 0x126 PUSH2 0x22C JUMP JUMPDEST SWAP1 POP PUSH0 DUP2 CALLVALUE PUSH2 0x135 SWAP2 SWAP1 PUSH2 0x3B1 JUMP JUMPDEST SWAP1 POP CALLER PUSH20 0xFFFFFFFFFFFFFFFFFFFFFFFFFFFFFFFFFFFFFFFF AND PUSH2 0x8FC DUP3 SWAP1 DUP2 ISZERO MUL SWAP1 PUSH1 0x40 MLOAD PUSH0 PUSH1 0x40 MLOAD DUP1 DUP4 SUB DUP2 DUP6 DUP9 DUP9 CALL SWAP4 POP POP POP POP ISZERO DUP1 ISZERO PUSH2 0x17A JUMPI RETURNDATASIZE PUSH0 PUSH0 RETURNDATACOPY RETURNDATASIZE PUSH0 REVERT JUMPDEST POP POP POP JUMP JUMPDEST DUP1 PUSH0 DUP2 SWAP1 SSTORE POP POP JUMP JUMPDEST PUSH0 PUSH0 SLOAD SWAP1 POP SWAP1 JUMP JUMPDEST PUSH2 0x228 DUP3 DUP3 PUSH1 0x40 MLOAD PUSH1 0x24 ADD PUSH2 0x1A6 SWAP3 SWAP2 SWAP1 PUSH2 0x441 JUMP JUMPDEST PUSH1 0x40 MLOAD PUSH1 0x20 DUP2 DUP4 SUB SUB DUP2 MSTORE SWAP1 PUSH1 0x40 MSTORE PUSH32 0xB60E72CC00000000000000000000000000000000000000000000000000000000 PUSH28 0xFFFFFFFFFFFFFFFFFFFFFFFFFFFFFFFFFFFFFFFFFFFFFFFFFFFFFFFF NOT AND PUSH1 0x20 DUP3 ADD DUP1 MLOAD PUSH28 0xFFFFFFFFFFFFFFFFFFFFFFFFFFFFFFFFFFFFFFFFFFFFFFFFFFFFFFFF DUP4 DUP2 DUP4 AND OR DUP4 MSTORE POP POP POP POP PUSH2 0x234 JUMP JUMPDEST POP POP JUMP JUMPDEST PUSH0 PUSH1 0x9 SWAP1 POP SWAP1 JUMP JUMPDEST PUSH2 0x24B DUP2 PUSH2 0x243 PUSH2 0x24E PUSH2 0x26D JUMP JUMPDEST PUSH4 0xFFFFFFFF AND JUMP JUMPDEST POP JUMP JUMPDEST PUSH0 PUSH11 0x636F6E736F6C652E6C6F67 SWAP1 POP PUSH0 PUSH0 DUP4 MLOAD PUSH1 0x20 DUP6 ADD DUP5 GAS STATICCALL POP POP POP JUMP JUMPDEST PUSH2 0x278 DUP2 SWAP1 POP SWAP2 SWAP1 POP JUMP JUMPDEST PUSH2 0x280 PUSH2 0x46F JUMP JUMPDEST JUMP JUMPDEST PUSH0 PUSH0 REVERT JUMPDEST PUSH0 DUP2 SWAP1 POP SWAP2 SWAP1 POP JUMP JUMPDEST PUSH2 0x298 DUP2 PUSH2 0x286 JUMP JUMPDEST DUP2 EQ PUSH2 0x2A2 JUMPI PUSH0 PUSH0 REVERT JUMPDEST POP JUMP JUMPDEST PUSH0 DUP2 CALLDATALOAD SWAP1 POP PUSH2 0x2B3 DUP2 PUSH2 0x28F JUMP JUMPDEST SWAP3 SWAP2 POP POP JUMP JUMPDEST PUSH0 PUSH1 0x20 DUP3 DUP5 SUB SLT ISZERO PUSH2 0x2CE JUMPI PUSH2 0x2CD PUSH2 0x282 JUMP JUMPDEST JUMPDEST PUSH0 PUSH2 0x2DB DUP5 DUP3 DUP6 ADD PUSH2 0x2A5 JUMP JUMPDEST SWAP2 POP POP SWAP3 SWAP2 POP POP JUMP JUMPDEST PUSH2 0x2ED DUP2 PUSH2 0x286 JUMP JUMPDEST DUP3 MSTORE POP POP JUMP JUMPDEST PUSH0 PUSH1 0x20 DUP3 ADD SWAP1 POP PUSH2 0x306 PUSH0 DUP4 ADD DUP5 PUSH2 0x2E4 JUMP JUMPDEST SWAP3 SWAP2 POP POP JUMP JUMPDEST PUSH0 DUP3 DUP3 MSTORE PUSH1 0x20 DUP3 ADD SWAP1 POP SWAP3 SWAP2 POP POP JUMP JUMPDEST PUSH32 0x4D7573742073656E64206174206C656173742031204554480000000000000000 PUSH0 DUP3 ADD MSTORE POP JUMP JUMPDEST PUSH0 PUSH2 0x350 PUSH1 0x18 DUP4 PUSH2 0x30C JUMP JUMPDEST SWAP2 POP PUSH2 0x35B DUP3 PUSH2 0x31C JUMP JUMPDEST PUSH1 0x20 DUP3 ADD SWAP1 POP SWAP2 SWAP1 POP JUMP JUMPDEST PUSH0 PUSH1 0x20 DUP3 ADD SWAP1 POP DUP2 DUP2 SUB PUSH0 DUP4 ADD MSTORE PUSH2 0x37D DUP2 PUSH2 0x344 JUMP JUMPDEST SWAP1 POP SWAP2 SWAP1 POP JUMP JUMPDEST PUSH32 0x4E487B7100000000000000000000000000000000000000000000000000000000 PUSH0 MSTORE PUSH1 0x12 PUSH1 0x4 MSTORE PUSH1 0x24 PUSH0 REVERT JUMPDEST PUSH0 PUSH2 0x3BB DUP3 PUSH2 0x286 JUMP JUMPDEST SWAP2 POP PUSH2 0x3C6 DUP4 PUSH2 0x286 JUMP JUMPDEST SWAP3 POP DUP3 PUSH2 0x3D6 JUMPI PUSH2 0x3D5 PUSH2 0x384 JUMP JUMPDEST JUMPDEST DUP3 DUP3 DIV SWAP1 POP SWAP3 SWAP2 POP POP JUMP JUMPDEST PUSH0 DUP2 MLOAD SWAP1 POP SWAP2 SWAP1 POP JUMP JUMPDEST DUP3 DUP2 DUP4 MCOPY PUSH0 DUP4 DUP4 ADD MSTORE POP POP POP JUMP JUMPDEST PUSH0 PUSH1 0x1F NOT PUSH1 0x1F DUP4 ADD AND SWAP1 POP SWAP2 SWAP1 POP JUMP JUMPDEST PUSH0 PUSH2 0x413 DUP3 PUSH2 0x3E1 JUMP JUMPDEST PUSH2 0x41D DUP2 DUP6 PUSH2 0x30C JUMP JUMPDEST SWAP4 POP PUSH2 0x42D DUP2 DUP6 PUSH1 0x20 DUP7 ADD PUSH2 0x3EB JUMP JUMPDEST PUSH2 0x436 DUP2 PUSH2 0x3F9 JUMP JUMPDEST DUP5 ADD SWAP2 POP POP SWAP3 SWAP2 POP POP JUMP JUMPDEST PUSH0 PUSH1 0x40 DUP3 ADD SWAP1 POP DUP2 DUP2 SUB PUSH0 DUP4 ADD MSTORE PUSH2 0x459 DUP2 DUP6 PUSH2 0x409 JUMP JUMPDEST SWAP1 POP PUSH2 0x468 PUSH1 0x20 DUP4 ADD DUP5 PUSH2 0x2E4 JUMP JUMPDEST SWAP4 SWAP3 POP POP POP JUMP JUMPDEST PUSH32 0x4E487B7100000000000000000000000000000000000000000000000000000000 PUSH0 MSTORE PUSH1 0x51 PUSH1 0x4 MSTORE PUSH1 0x24 PUSH0 REVERT INVALID LOG2 PUSH5 0x6970667358 0x22 SLT KECCAK256 NOT STATICCALL 0xF7 CALLVALUE 0x4D TIMESTAMP SWAP11 0xF DUP8 0x4F ADDRESS 0xAB 0xC5 EXTCODEHASH SWAP5 0xB4 0xE9 PUSH29 0x7E704DA04E7B5B9ECF6E19E4F54664736F6C634300081E003300000000 "
				},
				"gasEstimates": {
					"creation": {
						"codeDepositCost": "246800",
						"executionCost": "285",
						"totalCost": "247085"
					},
					"external": {
						"getNumber()": "2453",
						"payMeBackLess()": "infinite",
						"setNumber(uint256)": "22514"
					},
					"internal": {
						"getFixedNumber()": "22",
						"getFixedNumberInternal()": "infinite"
					}
				},
				"methodIdentifiers": {
					"getNumber()": "f2c9ecd8",
					"payMeBackLess()": "074e5f12",
					"setNumber(uint256)": "3fb5c1cb"
				}
			},
			"storageLayout": {
				"storage": [
					{
						"astId": 4,
						"contract": ".deps/MyContract.sol:MyContract",
						"label": "number",
						"offset": 0,
						"slot": "0",
						"type": "t_uint256"
					}
				],
				"types": {
					"t_uint256": {
						"encoding": "inplace",
						"label": "uint256",
						"numberOfBytes": "32"
					}
				}
			},
			"userdoc": {
				"kind": "user",
				"methods": {},
				"version": 1
			}
		}
	}
}